:040000004FEF18F0B6
:1000080000C01AF001C019F002C018F004C017F0BF
:1000180008C016F00CC015F0E1CF1BF0E2CF1CF0C1
:10002800F0B002D0029001D0028001017951010A9A
:10003800010ED8A4000E016E006A02B0002A00501A
:1000480001167851010A010ED8A4000E006E015065
:10005800001603E0030E796FF090F0B002D0029022
:1000680001D002807951020A010ED8A4000E016E57
:10007800006A02B0002A005001167851010A010EE8
:10008800D8A4000E006E0150001603E0010E796F2F
:10009800F090F0B002D0029001D002807951030AAA
:1000A800010ED8A4000E016E006A02B0002A0050AA
:1000B80001167851010A010ED8A4000E006E0150F5
:1000C800001603E0020E796FF090F0B202D00290B1
:1000D80001D002807951010A010ED8A4000E016EE8
:1000E800006A02B0002A005001167851010A010E78
:1000F800D8A4000E006E0150001603E0020E796FBE
:10010800F092F0B202D0029001D002807951020A36
:10011800010ED8A4000E016E006A02B0002A005039
:1001280001167851010A010ED8A4000E006E015084
:10013800001603E0030E796FF092F0B202D002903D
:1001480001D002807951030A010ED8A4000E016E75
:10015800006A02B0002A005001167851010A010E07
:10016800D8A4000E006E0150001603E0010E796F4E
:10017800F092F2B202D0029001D002807951020AC4
:10018800010ED8A4000E016E006A02B0002A0050C9
:1001980001167851010A010ED8A4000E006E015014
:1001A800001605E0020E796F020E786FF292F0B039
:1001B80002D0029001D002807B51010A010ED8A41E
:1001C800000E016E006A02B0002A00500116785134
:1001D800020A010ED8A4000E006E0150001603E0BA
:1001E800030E7B6FF090F0B002D0029001D0028035
:1001F8007B51020A010ED8A4000E016E006A02B0FB
:10020800002A005001167851020A010ED8A4000EE7
:10021800006E0150001603E0010E7B6FF090F0B005
:1002280002D0029001D002807B51030A010ED8A4AB
:10023800000E016E006A02B0002A005001167851C3
:10024800020A010ED8A4000E006E0150001603E049
:10025800020E7B6FF090F0B202D0029001D00280C3
:100268007B51010A010ED8A4000E016E006A02B08B
:10027800002A005001167851020A010ED8A4000E77
:10028800006E0150001603E0020E7B6FF092F0B290
:1002980002D0029001D002807B51020A010ED8A43C
:1002A800000E016E006A02B0002A00500116785153
:1002B800020A010ED8A4000E006E0150001603E0D9
:1002C800030E7B6FF092F0B202D0029001D0028050
:1002D8007B51030A010ED8A4000E016E006A02B019
:1002E800002A005001167851020A010ED8A4000E07
:1002F800006E0150001603E0010E7B6FF092F2B21F
:1003080002D0029001D002807B51010A010ED8A4CC
:10031800000E016E006A02B0002A005001167851E2
:10032800020A010ED8A4000E006E0150001609E062
:10033800010E786F010E7B6FF292060E2D6F000E84
:100348002E6FF2B202D0029001D002807B51020AD5
:10035800010ED8A4000E016E006A02B0002A0050F7
:1003680001167851020A010ED8A4000E006E015041
:10037800001609E0010E786F020E7B6FF292040EF0
:100388002D6F000E2E6FF2B202D0029001D00280C3
:100398007B51030A010ED8A4000E016E006A02B058
:1003A800002A005001167851020A010ED8A4000E46
:1003B800006E0150001609E0010E786F030E7B6F86
:1003C800F292030E2D6F000E2E6FF2B202D0029041
:1003D80001D002807951010A010ED8A4000E016EE5
:1003E800006A02B0002A005001167851010A010E75
:1003F800D8A4000E006E0150001605E0010E796FBA
:10040800030E786FF292F0B002D0029001D0028011
:100418000201D951010A010ED8A4000E016E006A2A
:1004280002B0002A0050011601017851030A010E9A
:10043800D8A4000E006E0150001604E0020E02015E
:10044800D96FF090F0B002D0029001D00280020182
:10045800D951020A010ED8A4000E016E006A02B03A
:10046800002A0050011601017851030A010ED8A490
:10047800000E006E0150001604E0010E0201D96F53
:10048800F090F0B202D0029001D002800201D9515E
:10049800020A010ED8A4000E016E006A02B0002AFA
:1004A8000050011601017851030A010ED8A4000E6C
:1004B800006E0150001604E0010E0201D96FF0929F
:1004C800F0B202D0029001D002800201D951010A93
:1004D800010ED8A4000E016E006A02B0002A005076
:1004E800011601017851030A010ED8A4000E006E0E
:1004F8000150001604E0020E0201D96FF092F2B228
:1005080002D0029001D002800201D951010A010EE5
:10051800D8A4000E016E006A02B0002A005001162D
:1005280001017851030A010ED8A4000E006E015093
:1005380000160AE0010E0201D96F080E0101786F5A
:1005480000019E6B9F6BF292F2B202D0029001D032
:1005580002800201D951020A010ED8A4000E016ED0
:10056800006A02B0002A0050011601017851030AFE
:10057800010ED8A4000E006E015000160AE0020E0B
:100588000201D96F080E0101786F00019E6B9F6B05
:10059800F292F0B002D0029001D0028001017851AD
:1005A800080A010ED8A4000E016E006A02B0002AE3
:1005B800015000160AE0030E245D02E2242B02D04B
:1005C800030E246F24C17CF1F090F0B202D00290A7
:1005D80001D002807851080A010ED8A4000E016EDD
:1005E800006A02B0002A015000160AE024510108EE
:1005F80002E2240702D0010E246F24C17CF1F0929C
:10060800F2B202D0029001D002807851080A010E9D
:10061800D8A4000E016E006A02B0002A015000162C
:1006280003E0070E786FF292F2B202D0029001D086
:1006380002807851070A010ED8A4000E016E006AE4
:1006480002B0002A015000165FE0070E786F010E15
:100658000001B46F0201DD6B0D0E0001DD25E16EB6
:10066800000EDE21E26E300EE66E0E0EDD2508016C
:100678007F6F000E0001DE210801806F0A0E046EF4
:10068800DDC200F0E4EC0BF008C000F0300E0026EC
:100698007FC8E1FF80C8E2FF00C0E6FF0D0E000141
:1006A800C72508017F6F000E0001C8210801806F6F
:1006B8000A0E046EDDC200F0E4EC0BF0300E0026EA
:1006C8007FC8E1FF80C8E2FF00C0E6FF0E0E000110
:1006D800C72508017F6F000E0001C8210801806F3F
:1006E8000A0E046EDDC200F0E4EC0BF008C000F066
:1006F800300E00267FC8E1FF80C8E2FF00C0E6FF99
:10070800F2920101106B116BF0B002D0029001D08F
:1007180002807851070A010ED8A4000E016E006A03
:1007280002B0002A0150001661E0010E786F010E38
:10073800796F010E0001B46FF2920201DD6B0D0EAC
:100748000001DD25E16E000EDE21E26E300EE66E60
:100758000E0EDD2508017F6F000E0001DE21080165
:10076800806F0A0E046EDDC200F0E4EC0BF008C0E6
:1007780000F0300E00267FC8E1FF80C8E2FF00C00D
:10078800E6FF0D0E0001C72508017F6F000E00016E
:10079800C8210801806F0A0E046EDDC200F0E4EC87
:1007A8000BF0300E00267FC8E1FF80C8E2FF00C0D2
:1007B800E6FF0E0E0001C72508017F6F000E00013D
:1007C800C8210801806F0A0E046EDDC200F0E4EC57
:1007D8000BF008C000F0300E00267FC8E1FF80C88B
:1007E800E2FF00C0E6FF0101106B116BF2B202D00C
:1007F800029001D002807951030A010ED8A4000E9C
:10080800016E006A02B0002A005001167851010AF0
:10081800010ED8A4000E006E0150001605E0030E6C
:10082800796F040E786FF292F0B002D0029001D086
:1008380002807A51010A010ED8A4000E016E006AE6
:1008480002B0002A005001167851040A010ED8A4FB
:10085800000E006E0150001603E0020E7A6FF09051
:10086800F0B002D0029001D002807A51020A010E43
:10087800D8A4000E016E006A02B0002A00500116CA
:100888007851040A010ED8A4000E006E015000161B
:1008980003E0010E7A6FF090F0B202D0029001D01E
:1008A80002807A51020A010ED8A4000E016E006A75
:1008B80002B0002A005001167851040A010ED8A48B
:1008C800000E006E0150001603E0010E7A6FF092E0
:1008D800F0B202D0029001D002807A51010A010ED2
:1008E800D8A4000E016E006A02B0002A005001165A
:1008F8007851040A010ED8A4000E006E01500016AB
:1009080003E0020E7A6FF092F2B202D0029001D0A8
:1009180002807A51010A010ED8A4000E016E006A05
:1009280002B0002A005001167851040A010ED8A41A
:10093800000E006E0150001605E0010E7A6F050EDC
:10094800786FF292F0B002D0029001D002800001DC
:10095800DF51010A010ED8A4000E016E006A02B030
:10096800002A0050011601017851050A010ED8A489
:10097800000E006E0150001604E0020E0001DF6F49
:10098800F090F0B002D0029001D002800001DF5157
:10099800020A010ED8A4000E016E006A02B0002AF5
:1009A8000050011601017851050A010ED8A4000E65
:1009B800006E0150001604E0010E0001DF6FF09098
:1009C800F0B202D0029001D002800001DF51020A89
:1009D800010ED8A4000E016E006A02B0002A005071
:1009E800011601017851050A010ED8A4000E006E07
:1009F8000150001604E0010E0001DF6FF092F0B222
:100A080002D0029001D002800001DF51010A010EDC
:100A1800D8A4000E016E006A02B0002A0050011628
:100A280001017851050A010ED8A4000E006E01508C
:100A3800001604E0020E0001DF6FF092F2B202D05D
:100A4800029001D002800001DF51010A010ED8A4F2
:100A5800000E016E006A02B0002A00500116010162
:100A68007851050A010ED8A4000E006E0150001638
:100A780007E0010E0001DF6F010E0101786FF292AD
:100A8800F2B202D0029001D002800001DF51020AC6
:100A9800010ED8A4000E016E006A02B0002A0050B0
:100AA800011601017851050A010ED8A4000E006E46
:100AB8000150001607E0020E0001DF6F010E010170
:100AC800786FF292F2B202D0029001D002807A518D
:100AD800020A010ED8A4000E016E006A02B0002AB4
:100AE800005001167851040A010ED8A4000E006EB9
:100AF8000150001605E0010E7A6F060E786FF2922B
:100B0800F0B002D0029001D002802351010A010EF8
:100B1800D8A4000E016E006A02B0002A0050011627
:100B28007851060A010ED8A4000E006E0150001676
:100B380003E0020E236FF090F0B002D0029001D0D3
:100B480002802351020A010ED8A4000E016E006A29
:100B580002B0002A005001167851060A010ED8A4E6
:100B6800000E006E0150001603E0010E236FF09096
:100B7800F0B202D0029001D002802351020A010E85
:100B8800D8A4000E016E006A02B0002A00500116B7
:100B98007851060A010ED8A4000E006E0150001606
:100BA80003E0010E236FF092F0B202D0029001D060
:100BB80002802351010A010ED8A4000E016E006ABA
:100BC80002B0002A005001167851060A010ED8A476
:100BD800000E006E0150001603E0020E236FF09223
:100BE800F2B202D0029001D002802351010A010E14
:100BF800D8A4000E016E006A02B0002A0050011647
:100C08007851060A010ED8A4000E006E0150001695
:100C18000AE0010E236F010E786F0201D76BF29282
:100C2800010ED56FD66BF2B202D0029001D00280CD
:100C380001012351020A010ED8A4000E016E006AB8
:100C480002B0002A005001167851060A010ED8A4F5
:100C5800000E006E015000160BE0020E236F010E0D
:100C6800786FFF0E0201D76FF292D56B010ED66F27
:100C78001AC000F019C001F018C002F017C004F043
:100C880016C008F015C00CF01BC0E1FF1CC0E2FF45
:020C9800110049
:0A0C9A000D0E0D6E0D2EFED7120098
:0A0CA4000000000000000000120034
:0A0CAE00F5DF9088F3DF9098120044
:100CB8000B6A0A6A096A086A0E6A0334083604501D
:100CC800085E0550D8A0053C095E0650D8A0063C31
:100CD8000A5E0750D8A0073C0B5EE86AD8A0010E50
:100CE8000E5E0336070E0C6E0334083609360A36D4
:100CF8000B360E36045003A012D0085E0550D8A05B
:100D0800053C095E0650D8A0063C0A5E0750D8A0EC
:100D1800073C0B5EE86AD8A0010E0E5E11D00826CB
:100D28000550D8B0053C09260650D8B0063C0A261E
:100D38000750D8B0073C0B26E86AD8B0010E0E263B
:100D480003360C2ED1D70234083609360A360B364C
:100D58000E36045003A012D0085E0550D8A0053CFA
:100D6800095E0650D8A0063C0A5E0750D8A0073C8A
:100D78000B5EE86AD8A0010E0E5E11D00826055059
:100D8800D8B0053C09260650D8B0063C0A260750BC
:100D9800D8B0073C0B26E86AD8B0010E0E260236FA
:100DA800070E0C6E0234083609360A360B360E3634
:100DB800045002A012D0085E0550D8A0053C095E78
:100DC8000650D8A0063C0A5E0750D8A0073C0B5E28
:100DD800E86AD8A0010E0E5E11D008260550D8B0DA
:100DE800053C09260650D8B0063C0A260750D8B05C
:100DF800073C0B26E86AD8B0010E0E2602360C2EE8
:100E0800D1D70134083609360A360B360E36045067
:100E180002A012D0085E0550D8A0053C095E065015
:100E2800D8A0063C0A5E0750D8A0073C0B5EE86ACB
:100E3800D8A0010E0E5E11D008260550D8B0053C8A
:100E480009260650D8B0063C0A260750D8B0073CF9
:100E58000B26E86AD8B0010E0E260136070E0C6E76
:100E68000134083609360A360B360E36045001A00E
:100E780012D0085E0550D8A0053C095E0650D8A0DF
:100E8800063C0A5E0750D8A0073C0B5EE86AD8A06B
:100E9800010E0E5E11D008260550D8B0053C092673
:100EA8000650D8B0063C0A260750D8B0073C0B2697
:100EB800E86AD8B0010E0E2601360C2ED1D70034C0
:100EC800083609360A360B360E36045001A012D001
:100ED800085E0550D8A0053C095E0650D8A0063C1F
:100EE8000A5E0750D8A0073C0B5EE86AD8A0010E3E
:100EF8000E5E11D008260550D8B0053C09260650CC
:100F0800D8B0063C0A260750D8B0073C0B26E86A3A
:100F1800D8B0010E0E260036070E0C6E00340836C7
:100F280009360A360B360E36045000A012D0085E79
:100F38000550D8A0053C095E0650D8A0063C0A5EBC
:100F48000750D8A0073C0B5EE86AD8A0010E0E5ED9
:100F580011D008260550D8B0053C09260650D8B04F
:100F6800063C0A260750D8B0073C0B26E86AD8B0DA
:100F7800010E0E2600360C2ED1D700B00ED004502C
:100F880008260550D8B0053C09260650D8B0063CBE
:0C0F98000A260750D8B0073C0B261200B8
:100FA400220E0C6E086A096A0A6A0B6A0C06D8B427
:100FB4001FD0D8900B320A3209320832033202327F
:100FC40001320032D8A0F2D70C06D8B409D00450AC
:100FD40008260550092206500A2207500B22EAD798
:100FE400045008260550092206500A2207500B22F5
:020FF4001200E9
:100FF600800E006E3E0E016E000E026E036E120033
:10100600120E006E000E016E830E0024E16E0F0EAE
:101016000120E26EFF0EE66E42DE41DE908490987D
:101026009086908837DE83CF7EF89098909637DE4C
:1010360036DE120E006E000E016E830E0024E16E87
:0E1046000F0E0120E26EE66A7EC800F0120076
:0E1054009098908490967EC883FF27DE12004D
:1010620090949096B80E08017E11836E1FDE1200D6
:101072007F0E08017E15016E01C07EF801AC03D01F
:0C1082009080909202D09090908212001A
:10108E000B6A0A6A096A00500402F4CF09F0F3CF22
:10109E0008F001500502F4CF0BF0F3CF0AF0005028
:1010AE000502F3500926F4500A22E86A0B22015079
:1010BE000402F3500926F4500A22E86A0B2208C0F3
:1010CE0000F009C001F00AC002F00BC003F01200DC
:0C10DE00420E0D6E0D2EFED70000120019
:1010EA001D0E0C6E910E0D6E0D2EFED70C2EFCD71A
:0210FA001200E2
:1010FC0008017E077E077EC801F07E0701500008BC
:10110C0003E200000000F7D7000000000000000020
:04111C0000001200BD
:10112000086A096A100E0C6E01340836093604503C
:10113000085E0550D8A0053C095ED8B007D0045021
:1011400008260550D8B0053C0926D890003601364F
:061150000C2EEAD712008C
:101156007F0E08017E15006E00C07EF89094909672
:10116600BF0E001600C07EF8008C00C07EF800C0DE
:0611760083FF9ADD120068
:10117C00000E0801725D0AE372517F0807E3000E4E
:10118C00735D04E373513F0801E301D04AD072C888
:10119C007EF869DF73C87EF87E337E9F7E337E9F38
:1011AC007E337E9F58DF72C87EF8CFDF26DF00C00B
:1011BC0077F823DF00C077F873C87EF87E337E9F04
:1011CC007E337E9F7E337E9F46DF72C87EF8BDDF06
:1011DC00070E7315006E00C075F800C001F0010E0B
:1011EC00006E015004E000360090FF0FFBD700C0EA
:1011FC0075F8001C766F09D0765177170FD07551A2
:10120C0077130CD07551771B09D07451000AF4E098
:10121C007451010AF4E07451020AF4E077C87EF8C4
:04122C0013DF1200BA
:1012300072C8DFF273C8E0F2000E0201E16FE26FE4
:06124000010EE46F120034
:1012460008017451070801E28CD00201EE51080131
:10125600725D006EEFC201F0000E0156EDC204F0A1
:10126600000E056E11DF00C07AF801C07BF873C866
:101276007EF86EDF74C87EF8F1DE766B0201ED5102
:101286000801765D4FE273517F0801E26AD073C8A8
:101296007EF8ECDE74C87EF8E1DE73C87EF858DFAF
:1012A600AFDE00C077F8ACDE00C077F873C87EF812
:1012B600DDDE74C87EF8D2DE73C87EF849DF7A5167
:1012C6000201F025F66E08017B510201F121F76E4D
:1012D600000E08017BBFFF0E0201F221F86E090025
:1012E600F5CF00F000C078F808017A4B7B2B001C84
:1012F600796F09D079C877F80FD078C877F80CD00D
:101306007851771B09D07551000AF4E07551010A2E
:10131600F4E07551020AF4E077C87EF898DE732B84
:10132600762BACD773C87EF8A1DE74C87EF896DE3D
:1013360073C87EF80DDFFF0E786F796B0CD078C816
:1013460077F878C87EF883DE0CD079C877F879C844
:101356007EF87DDE06D07551000AF1E07551010A6E
:04136600F4E012009D
:10136A00080172BF02D0849C01D0848C72BD02D065
:10137A00849A01D0848A72BB02D0849801D084886E
:10138A0072B902D0849601D084860201E7B102D0F4
:10139A00848201D08492848480DC8494080172B7A8
:1013AA0002D0849C01D0848C72B502D0849A01D078
:1013BA00848A72B302D0849801D0848872B102D030
:1013CA00849601D084860201E7B102D0848201D0DA
:1013DA008492848462DC8494E7A102D081DE01D005
:0413EA0079DE120096
:1013EE0003DEE80E046E030E056E000E066E076E2B
:1013FE00D2DD00C07AF801C07BF802C07CF803C0D1
:10140E007DF872C804F073C805F0000E066E076E04
:10141E004CDC00C07AF801C07BF802C07CF803C037
:10142E007DF800C005F001C006F002C007F003C051
:10143E0008F00832073206320532089E08320732AB
:10144E0006320532089E05C000F006C001F007C046
:10145E0002F008C003F00332023201320032039E62
:10146E0000C076F801C077F8BFDD74C804F075C807
:10147E0005F0000E066E076E8EDD76C809F077C891
:10148E000AF0000E0B6E0C6E030E086E09C004F00F
:10149E000AC005F00BC006F00CC007F0085007E0BC
:1014AE0004360490053606360736FF0FF8D75CEC87
:1014BE0006F000C07AF801C07BF802C07CF803C0C9
:1014CE007DF80A0E046E000E056E76C800F077C821
:1014DE0001F01FDE00C076F801C077F8000E015C47
:1014EE0002E1030E005C01E247D0E5C2E9FFE6C26D
:1014FE00EAFF08017D51000808E17C51000805E172
:10150E007B51000802E17A51000833E20201E951F1
:10151E00EF12080177530DE0786B796B000E795D51
:10152E0002E17751785D05E27E6BE1DD784B792B38
:10153E00F5D776C87EF8DBDD0201E851EF1608011B
:10154E0077530DE0786B796B000E795D02E1775180
:10155E00785D05E27E6BCBDD784B792BF5D776C8BF
:10156E007EF8C5DD010E7A5F000E7B5B7C5B7D5BDA
:0A157E00C0D70201E851EF16120079
:1015880072C8E5F273C8E6F274C801F0010E006E85
:10159800015004E000360090FF0FFBD700C0E9F2CD
:1015A800001E00C0E8F2120E08017225E96E000E56
:1015B8007321EA6E0050EF16120EE95E0050EF1626
:0215C80012000F
:1015CA000134083609360450085E0550D8A0053C97
:1015DA00095E003601360F0E0C6E013408360936E4
:1015EA00045000A006D0085E0550D8A0053C095E4C
:1015FA0005D008260550D8B0053C09260036013624
:10160A000C2EEBD700B006D0045008260550D8B0EF
:08161A00053C09260000120046
:101622000450000A08E10550000A05E1FF0E006EB1
:101632007F0E016E57D00D6A096A086A01500010C8
:10164200D8B4000C015005180A6E0ABE0D1E0B6AB2
:1016520005AE05D0041E051E042AD8B4052A01AE23
:1016620005D0001E011E002AD8B4012A015005101F
:101672000A6E0ABE10D0A8DF0BB020D00DAE000C4F
:10168200001E011E002AD8B4012A081E091E082ABB
:10169200D8B4092A000C05AE0DD001BE07D0015006
:1016A200096E0050086E016A006AE8D7016A006A92
:1016B200002A000C011E001E0B2ADDD7082AD8B40E
:1016C200092A0450085CD8A4D9D70550095CD8A4CB
:1016D200D5D7096A086A002AD8B4012A01AECED742
:0616E2000000FF0C1200E5
:1016E800000E0801615D04E361517F0801E301D048
:1016F80027D0000E5F5DD8A05F6B5F513F0802E204
:101708003F0E5F6F000E605DD8A0606B60513F08B0
:1017180002E23F0E606F5F51605D06E25FC863F8EA
:1017280060C85FF863C860F85F51605D09E361C82D
:1017380072F85FC873F862C874F81CDD5F2BF4D7C1
:0217480012008D
:10174A000201E45306E1010E0801726F000E736F85
:10175A006ADDDFC200F0E0C201F0E1C202F0E2C2DB
:10176A0003F06D0E046E4E0E056EC60E066E410E29
:10177A00076E13DC390E0024056E300E0120066E4A
:10178A00000E0220076E000E0320086E07C000F04C
:10179A0008C001F0000E08BEFF0E026E036EFF0EB7
:1017AA0000167F0E0116000E0216031600C0DFF2A5
:0E17BA0001C0E0F202C0E1F203C0E2F2120050
:1017C800086A080E0C6E003408360450085ED8B05B
:0E17D80002D00826D89000360C2EF5D712004D
:1017E600909090820801616B615107080EE361C811
:1017F6007EF834DC606B60513F0805E35FC87EF815
:1018060026DC602BF8D7612BEFD790929080616B26
:10181600615107080EE361C87EF820DC606B6051F9
:101826003F0805E35FC87EF812DC602BF8D7612B12
:04183600EFD71200D6
:10183A00800E08016019006E800E005C02E1000E45
:10184A005F5D02E25F6B606B800E006E800E601956
:10185A00005C02E15F517F0804E27F0E5F6F000EB9
:10186A00606F800E6419006E800E005C02E1000E4B
:10187A00635D02E2636B646B800E006E800E641916
:10188A00005C02E163517F0804E27F0E636F000E81
:10189A00646F800E6219006E800E005C02E1000E19
:1018AA00615D02E2616B626B800E006E800E6219EE
:1018BA00005C02E161513F0804E23F0E616F000ED5
:1018CA00626F800E6619006E800E005C02E1000EE7
:1018DA00655D02E2656B666B800E006E800E6619AE
:1018EA00005C02E165513F0804E23F0E656F000E9D
:1018FA00666F5F51635D016E60516459026E01C08B
:10190A0068F802C069F86151655D6A6F625166598B
:10191A006B6F800E0218006E800E005C02E1000EF2
:10192A00015C0BE268510008686F6951000E695743
:10193A00FF0E6C6FFF0E6D6F04D0010E6C6F000E00
:10194A006D6F800E6B19006E800E005C02E1000E56
:10195A006A5D0BE26A5100086A6F6B51000E6B57A1
:10196A00FF0E6E6FFF0E6F6F04D0010E6E6F000ECA
:10197A006F6F6837689169376A376A916B375FC8E2
:10198A0072F861C873F867C874F8BEEC08F0800E84
:10199A006B19006E800E6919005C02E168516A5D7C
:1019AA003EE268C800F069C801F001320032019EC7
:1019BA0001BC018E00506A5D706F01506B59716FE6
:1019CA006051641902E163515F1928E0800E7119B0
:1019DA00006E800E005C02E1000E705D08E36E513D
:1019EA0061276F5162236851705F6951715B6C5155
:1019FA005F25006E6D516021016E00C05FF801C065
:101A0A0060F86A5170276B51712300C072F861C87F
:101A1A0073F867C874F8BEEC08F0D2D73DD06AC82C
:101A2A0000F06BC801F001320032019E01BC018E48
:101A3A000050685D706F01506959716F6251661983
:101A4A0002E16551611928E0800E7119006E800E5D
:101A5A00005C02E1000E705D08E36C515F276D5176
:101A6A0060236A51705F6B51715B6E516125006E24
:101A7A006F516221016E00C061F801C062F86851BD
:101A8A007027695171235FC872F800C073F867C87C
:0A1A9A0074F8BEEC08F0D2D7120079
:101AA4000801646B0201E351000A0EE1050EED6FBB
:101AB400070EEC6F520EF06F740EF16F010EF26FA1
:101AC400200EEE6F000EEF6F080164515F25E96E82
:101AD400000E6021EA6EEE5219E064515F25E96E52
:101AE400000E6021EA6EEECF72F861C873F862C826
:101AF40074F863C875F823EC09F00201ED51010F85
:0E1B0400006E005008016127642BDED712002E
:101B120082A631D082BC2FD0800E0801726F0F0EC8
:101B2200736F030E746F2FDDF40E726F010E736FFD
:101B3200640E746F000E756F59DC640E0801726FCB
:101B4200000E736F320E746F000E756F4FDCF40E61
:101B52000801726F010E736F640E746F000E756F61
:101B620045DC640E0801726F000E736F320E746FE3
:101B7200000E756F3BDC82AC31D082B62FD0800E66
:101B82000801726F0F0E736F030E746FFCDCE80EA8
:101B9200726F030E736F640E746F000E756F26DC26
:101BA200F40E0801726F010E736F320E746F000E25
:101BB200756F1CDCE80E0801726F030E736F640E02
:101BC200746F000E756F12DCF40E0801726F010E55
:101BD200736F320E746F000E756F08DC82AC35D0F5
:101BE20082A633D0800E0801726F0F0E736F030E40
:101BF200746FC9DCF40E726F010E736F640E746F32
:101C0200000E756FF7EC09F0640E0801726F000E9A
:101C1200736F320E746F000E756FF7EC09F0F40EED
:101C22000801726F010E736F640E746F000E756F90
:101C3200F7EC09F0640E0801726F000E736F320E3A
:0C1C4200746F000E756FF7EC09F01200D3
:101C4E00000E0801615D04E361513F0801E301D01C
:101C5E0028D0000E5F5DD8A05F6B5F517F0802E257
:101C6E007F0E5F6F000E605DD8A0606B60517F08C5
:101C7E0002E27F0E606F5F51605D06E25FC863F83F
:101C8E0060C85FF863C860F85F51605D0AE35FC8C3
:101C9E0072F861C873F862C874F8BEEC08F05F2B76
:041CAE00F3D7120056
:101CB2000201E7915FC872F8B5EC09F0E781120002
:101CC2000801636B646B656B6351070845E37E6BC8
:101CD20039EC08F063C87EF831EC08F07E6BABECAF
:101CE20008F0626B62513F0812E364515F25F66EA1
:101CF20065516021F76E000E6121F86E0900F5CF83
:101D02007EF82AEC08F0644B652B622BEBD7400E71
:101D12007E6F39EC08F063C87EF831EC08F0400EB3
:101D22007E6FABEC08F0400E626F62517F0812E3E7
:101D320064515F25F66E65516021F76E000E6121D8
:101D4200F86E0900F5CF7EF82AEC08F0644B652B9B
:0A1D5200622BEBD7632BB8D7120009
:101D5C00120E006E000E016E820E0024E16E0F0E4C
:0A1D6C000120E26EFF0EE66E120089
:101D76000900F5CFE6FF0006FBE10106F9E11200D6
:101D860058C8F0F259C8F1F25AC8F2F25DC8EEF23C
:101D96005EC8EFF25BC8EDF25CC8ECF2010E020120
:041DA600E36F1200D5
:101DAA000201E36BEA6BEB6B999A9998999499966D
:101DBA0099909992909A120E006E000E016E830EFF
:101DCA000024E16E0F0E0120E26EE66A909490966E
:101DDA0090909082908A3F0E836E57EC06F0C00E68
:101DEA00836E57EC06F0908090923F0E836E57EC0C
:0C1DFA0006F0C00E836E57EC06F01200DD
:101E060010D0800E0801586F1AD0C00E586F17D028
:101E1600940E586F14D0D40E586F11D0800E586F90
:101E26000ED008015851010AECE05851020AEDE0C3
:101E36005851030AEDE05851040AEDE0EFD7590571
:101E4600006E5851002600C058F800C072F8B5EC74
:101E560009F0E79108015C6B5C515A25E96E000EAA
:101E66005B21EA6EEE520CE05C515A25E96E000EDB
:101E76005B21EA6EEECF5FF819DF08015C2BECD729
:061E86000201E7811200D9
:101E8C00800E0801726F0F0E736F030E746FC4EC2B
:101E9C000AF0140E726F050E736F2B0E746F000E1A
:101EAC00756FF7EC09F0600E0801726F040E736F1A
:101EBC00170E746F000E756FF7EC09F0B00E080179
:101ECC00726F040E736F2B0E746F000E756FF7EC40
:101EDC0009F0280E0801726F050E736F170E746FE0
:0A1EEC00000E756FF7EC09F012000C
:101EF6009694969296969698969A969C84948492A0
:101F0600849C849A8498849675EC08F075EC08F0A5
:101F160075EC08F084888486848452EC06F08494F8
:101F260075EC08F0848452EC06F0849475EC08F0A5
:101F3600848452EC06F0849475EC08F084968484CC
:101F460052EC06F0849475EC08F0848452EC06F0AA
:101F560084948498848C848452EC06F0849475EC82
:101F660008F0849C8486848452EC06F084948496DB
:101F7600848452EC06F0849475EC08F0848452EC68
:101F860006F084948486848452EC06F0849475EC7E
:101F960008F08496848452EC06F08494848C848AB7
:101FA60084888486848452EC06F0849475EC08F068
:061FB6000201E7811200A8
:101FBC00400E08015F6F000E606F0A0E616F000E1D
:101FCC00626F400E636F000E646F120E656F000E31
:101FDC00666FD5C267F82BDC400E5F6F000E606F2A
:101FEC003F0E616F000E626F400E636F000E646FE8
:101FFC00370E656F000E666FD5C267F818DC1200DD
:10200C000C0E08015F6F000E606F2A0E616F000EE0
:10201C00626F0C0E636F000E646F200E656F000E06
:10202C00666FD5C267F803DC730E5F6F000E606FCE
:10203C00180E616F000E626F730E636F000E646F8B
:10204C00240E656F000E666FD5C267F81DEC0CF0A0
:02205C00120070
:10205E0059DD070E0201DA6F010ED46F0C0ED86F28
:10206E0008015F6BF3EC0BF0940E5F6F150E606F53
:10207E00010E616F1FDE050E0B6E0F0E0C6EF10E54
:10208E000D6E0D2EFED70C2EFCD70B2EFAD7940EFE
:10209E005F6F190E606F010E616F0CDE050E0B6E19
:1020AE000F0E0C6EF10E0D6E0D2EFED70C2EFCD7F4
:1020BE000B2EFAD7940E5F6F0D0E606F010E616FCF
:1020CE00F9DD050E0B6E0F0E0C6EF10E0D6E0D2E54
:1020DE00FED70C2EFCD70B2EFAD7940E5F6F110E77
:1020EE00606F010E616FE6DD050E0B6E0F0E0C6E4E
:1020FE00F10E0D6E0D2EFED70C2EFCD70B2EFAD731
:10210E00940E5F6F250E606F010E616FD3DD050EAD
:10211E000B6E0F0E0C6EF10E0D6E0D2EFED70C2EDD
:10212E00FCD70B2EFAD7940E5F6F290E606F010E3F
:10213E00616FC0DD050E0B6E0F0E0C6EF10E0D6E87
:10214E000D2EFED70C2EFCD70B2EFAD7940E5F6FEA
:10215E001D0E606F010E616FADDD050E0B6E0F0E65
:10216E000C6EF10E0D6E0D2EFED70C2EFCD70B2E17
:10217E00FAD7940E5F6F210E606F010E616F9ADDBC
:10218E00050E0B6E0F0E0C6EF10E0D6E0D2EFED794
:10219E000C2EFCD70B2EFAD7D7C25FF8F3EC0BF050
:1021AE000201D951010AD8A4D9D00001DF51010A88
:1021BE0069E10D0EDD250801586F000E0001DE21CC
:1021CE000801596F0A0E046EDDC200F0E4EC0BF04C
:1021DE00300E002658C8E1FF59C8E2FF00C0E6FFE6
:1021EE000E0E0001DD250801586F000E0001DE21E4
:1021FE000801596F0A0E046EDDC200F0E4EC0BF01C
:10220E0008C000F0300E002658C8E1FF59C8E2FFA2
:10221E0000C0E6FFDDC05FF8DEC060F8010E616F42
:10222E00030E626FD5C263F836DCE00E5F6F000EF0
:10223E00606F010E616F040E626FD5C263F82BDC06
:10224E00C90E5F6F000E606F010E616F050E626F3B
:10225E00D5C263F820DC0201DD6B0D0E0001DD2519
:10226E00E16E000EDE21E26E300EE66E0E0EDD2504
:10227E00E16E000EDE21E26E300EE66E020EB56FDE
:10228E00B46B6BD00D0EC7250801586F000E000100
:10229E00C8210801596F0A0E046EDDC200F0E4EC8D
:1022AE000BF0300E002658C8E1FF59C8E2FF00C0FF
:1022BE00E6FF0E0E0001C7250801586F000E000143
:1022CE00C8210801596F0A0E046EDDC200F0E4EC5D
:1022DE000BF008C000F0300E002658C8E1FF59C8B8
:1022EE00E2FF00C0E6FFC7C05FF8C8C060F8010E8D
:1022FE00616F030E626FD5C263F852EC0DF0B60E2D
:10230E005F6F000E606F010E616F040E626FD5C2BB
:10231E0063F852EC0DF0120E5F6F010E606F010E3E
:10232E00616F050E626FD5C263F852EC0DF00201BB
:10233E00DD6B0D0E0001C725E16E000EC821E26EA9
:10234E00300EE66E0E0EC725E16E000EC821E26E4F
:10235E00300EE66E020EB56FB46BA3D30101104BB7
:10236E00112B000E111902E1010E101922E1245158
:10237E00000A1FE12351010A1CE10001DF51010A8D
:10238E0018E108015F6BF3EC0BF0940E5F6F090E12
:10239E00606F010E616F8EDC1F0E0B6E710E0C6E78
:1023AE001E0E0D6E0D2EFED70C2EFCD70B2EFAD751
:1023BE000000000E0101111902E1010E101922E1B7
:1023CE002451000A1FE12351020A1CE10001DF51D2
:1023DE00010A18E108015F6BF3EC0BF0940E5F6FCE
:1023EE00F10E606F000E616F65DC1F0E0B6E710ECD
:1023FE000C6E1E0E0D6E0D2EFED70C2EFCD70B2E58
:10240E00FAD70000000E0101111902E1010E101998
:10241E0022E12451000A1FE12351010A1CE10001AF
:10242E00DF51020A18E108015F6BF3EC0BF0940E1A
:10243E005F6FF50E606F000E616F3CDC1F0E0B6E52
:10244E00710E0C6E1E0E0D6E0D2EFED70C2EFCD7C1
:10245E000B2EFAD70000000E0101111902E1010E38
:10246E00101922E12451000A1FE12351020A1CE136
:10247E000001DF51020A18E108015F6BF3EC0BF06B
:10248E00940E5F6FE90E606F000E616F13DC1F0E0E
:10249E000B6E710E0C6E1E0E0D6E0D2EFED70C2ECB
:1024AE00FCD70B2EFAD70000000E0101111902E124
:1024BE00020E1019D8A4CCD20001B46B0A0E046E11
:1024CE00DEC200F0E4EC0BF0300E0026016A000EC6
:1024DE0001220A0E046E000E056E47EC08F000C0D5
:1024EE0058F801C059F80A0E046EDEC200F0E4EC92
:1024FE000BF008C000F0300E0026016A000E01221B
:10250E000050080158255A6F015059215B6F0A0E71
:10251E00046EDDC200F0E4EC0BF0300E0026016A12
:10252E00000E01220A0E046E000E056E47EC08F036
:10253E0000C058F801C059F80A0E046EDDC200F052
:10254E00E4EC0BF008C000F0300E0026016A000E1D
:10255E00012200505825026E01505921036E800E43
:10256E000318006E800E5B19005C02E15A51025C8A
:10257E00D8B037D10001DF51010AD8A4A0D00F0E78
:10258E00F7250801586F000E0001F8210801596F58
:10259E000A0E046EDEC200F0E4EC0BF0300E0026E4
:1025AE0058C8E1FF59C8E2FF00C0E6FF100E000157
:1025BE00F7250801586F000E0001F8210801596F28
:1025CE000A0E046EDEC200F0E4EC0BF008C000F060
:1025DE00300E002658C8E1FF59C8E2FF00C0E6FFE2
:1025EE000F0E0001F5250801586F000E0001F621AF
:1025FE000801596F0A0E046EDDC200F0E4EC0BF018
:10260E00300E002658C8E1FF59C8E2FF00C0E6FFB1
:10261E00100E0001F5250801586F000E0001F6217D
:10262E000801596F0A0E046EDDC200F0E4EC0BF0E7
:10263E0008C000F0300E002658C8E1FF59C8E2FF6E
:10264E0000C0E6FFF7C05FF8F8C060F8010E616FDA
:10265E00010E626FD5C263F852EC0DF0F5C05FF853
:10266E00F6C060F8010E616F020E626FD5C263F89C
:10267E0052EC0DF00EC15FF80FC160F8010E616FE4
:10268E00030E626FD5C263F852EC0DF0F90E5F6F58
:10269E00000E606F010E616F050E626FD5C263F89A
:1026AE0052EC0DF0A00E5F6F000E606F010E616FA9
:1026BE00060E626FD5C263F852EC0DF091D0080190
:1026CE000F0E5D24586F000E5E20596F0A0E046EB9
:1026DE00DEC200F0E4EC0BF0300E002658C8E1FF2D
:1026EE0059C8E2FF00C0E6FF100E5D24586F000EC1
:1026FE005E20596F0A0E046EDEC200F0E4EC0BF0A1
:10270E0008C000F0300E002658C8E1FF59C8E2FF9D
:10271E0000C0E6FF0F0E5B24586F000E5C20596F51
:10272E000A0E046EDDC200F0E4EC0BF0300E002653
:10273E0058C8E1FF59C8E2FF00C0E6FF100E5B2447
:10274E00586F000E5C20596F0A0E046EDDC200F049
:10275E00E4EC0BF008C000F0300E002658C8E1FF84
:10276E0059C8E2FF00C0E6FF5DC05FF85EC060F8CA
:10277E00010E616F010E626FD5C263F852EC0DF05F
:10278E005BC05FF85CC060F8010E616F020E626F95
:10279E00D5C263F852EC0DF070C05FF871C060F8EE
:1027AE00010E616F030E626FD5C263F852EC0DF02D
:1027BE005F0E5F6F000E606F010E616F050E626F30
:1027CE00D5C263F852EC0DF04A0E5F6F000E606FCB
:1027DE00010E616F060E626FD5C263F852EC0DF0FA
:1027EE0036D10001DF51010AD8A4A0D00F0EF72573
:1027FE000801586F000E0001F8210801596F0A0EEA
:10280E00046EDEC200F0E4EC0BF0300E002658C869
:10281E00E1FF59C8E2FF00C0E6FF100E0001F725E8
:10282E000801586F000E0001F8210801596F0A0EB9
:10283E00046EDEC200F0E4EC0BF008C000F0300EC7
:10284E00002658C8E1FF59C8E2FF00C0E6FF0F0E90
:10285E000001F5250801586F000E0001F621080150
:10286E00596F0A0E046EDDC200F0E4EC0BF0300E70
:10287E00002658C8E1FF59C8E2FF00C0E6FF100E5F
:10288E000001F5250801586F000E0001F621080120
:10289E00596F0A0E046EDDC200F0E4EC0BF008C0B6
:1028AE0000F0300E002658C8E1FF59C8E2FF00C004
:1028BE00E6FFF7C05FF8F8C060F8010E616F010E19
:1028CE00626FD5C263F852EC0DF0F5C05FF8F6C03A
:1028DE0060F8010E616F020E626FD5C263F852ECA2
:1028EE000DF032C05FF833C060F8010E616F030E59
:1028FE00626FD5C263F852EC0DF01D0E5F6F000EC5
:10290E00606F010E616F050E626FD5C263F852ECF7
:10291E000DF0360E5F6F000E606F010E616F060ECA
:10292E00626FD5C263F852EC0DF091D008010F0E14
:10293E005D24586F000E5E20596F0A0E046EDEC2C3
:10294E0000F0E4EC0BF0300E002658C8E1FF59C839
:10295E00E2FF00C0E6FF100E5D24586F000E5E20F1
:10296E00596F0A0E046EDEC200F0E4EC0BF008C0E4
:10297E0000F0300E002658C8E1FF59C8E2FF00C033
:10298E00E6FF0F0E5B24586F000E5C20596F0A0E87
:10299E00046EDDC200F0E4EC0BF0300E002658C8D9
:1029AE00E1FF59C8E2FF00C0E6FF100E5B24586F2E
:1029BE00000E5C20596F0A0E046EDDC200F0E4ECCE
:1029CE000BF008C000F0300E002658C8E1FF59C8C1
:1029DE00E2FF00C0E6FF5DC05FF85EC060F8010E6A
:1029EE00616F010E626FD5C263F852EC0DF05BC0E1
:1029FE005FF85CC060F8010E616F020E626FD5C2A7
:102A0E0063F852EC0DF034C05FF835C060F8010E7B
:102A1E00616F030E626FD5C263F852EC0DF08D0E2E
:102A2E005F6F000E606F010E616F050E626FD5C293
:102A3E0063F852EC0DF07C0E5F6F000E606F010EAE
:102A4E00616F060E626F010E636F52EC0DF029D0AE
:102A5E00DDC2DEF20201DD6B0D0E0001DD25E16E41
:102A6E00000EDE21E26E300EE66E0E0EDD25E16EFC
:102A7E00000EDE21E26E300EE66E020EB56F0D0E0A
:102A8E00C725E16E000EC821E26E300EE66E0E0E08
:102A9E00C725E16E000EC821E26E300EE66E010E05
:042AAE00B46F1200EF
:102AB20001012451020A19E12351010A16E1940E7F
:102AC20008015F6FB90E606F000E616F61EC0EF06E
:102AD2001F0E0B6E710E0C6E1E0E0D6E0D2EFED79E
:102AE2000C2EFCD70B2EFAD7000001012451010A4B
:102AF20019E12351010A16E1940E08015F6FBD0E20
:102B0200606F000E616F61EC0EF01F0E0B6E710EA6
:102B12000C6E1E0E0D6E0D2EFED70C2EFCD70B2E3C
:102B2200FAD7000001012451020A19E12351020AD5
:102B320016E1940E08015F6FB10E606F000E616FB7
:102B420061EC0EF01F0E0B6E710E0C6E1E0E0D6EF2
:102B52000D2EFED70C2EFCD70B2EFAD7000001014A
:102B62002451010A19E12351020A16E1940E0801C7
:102B72005F6FB50E606F000E616F61EC0EF01F0E9D
:102B82000B6E710E0C6E1E0E0D6E0D2EFED70C2EE0
:102B9200FCD70B2EFAD70000070E0201DA6F010EE6
:102BA200D46F0C0ED86FD7C25FF8F3EC0BF0020EA5
:062BB2000001B56F1200E6
:102BB800DBC272F8DCC273F8D6C274F8BEEC08F057
:102BC8000201DB51010F0801726FDCC273F8D6C233
:102BD80074F8BEEC08F0A5EC0BF0080E046E010EBC
:102BE800056E11EC0BF00050010F0201DB6FA5EC34
:102BF8000BF0D00E046E020E056E11EC0BF00F0EEA
:102C0800002600C0DCF2DBC272F800C073F8D5C23F
:102C180074F8BEEC08F00201DB51010F0801726F75
:0E2C2800DCC273F8D5C274F8BEEC08F01200DE
:102C360059C85DF808015D515B5D0CE358C85FF843
:102C46005AC860F85DC861F85CC862F827EC0EF0F7
:062C56005D2BF0D7120017
:102C5C0054C872F855C873F8D6C274F8BEEC08F0B4
:102C6C005451010F726F55C873F8D6C274F8BEEC8C
:102C7C0008F05451010F726F5551010F736FD6C28A
:102C8C0074F8BEEC08F054C872F85551010F736F0C
:102C9C00D6C274F8BEEC08F0A5EC0BF0C80E046EAE
:102CAC00010E056E11EC0BF00050010F0801546F72
:102CBC00A5EC0BF0EE0E046E020E056E11EC0BF093
:102CCC000F0E002600C055F854C872F800C073F8F7
:102CDC00D5C274F8BEEC08F05451010F726F55C890
:102CEC0073F8D5C274F8BEEC08F05451010F726F32
:102CFC005551010F736FD5C274F8BEEC08F054C86F
:102D0C0072F85551010F736FD5C274F8BEEC08F010
:022D1C001200A3
:102D1E00000E00019F1902E1000E9E1909E1D7C2B3
:102D2E005FF8F3EC0BF0010E00019E6F000E9F6F2B
:102D3E00DF51010A57E101012451010A19E17AC05C
:102D4E005FF87BC060F8010E0801616F030E626FC1
:102D5E00D5C263F852EC0DF074C05FF875C060F820
:102D6E00010E616F050E626FD5C263F852EC0DF065
:102D7E0001012451020A19E17AC05FF87BC060F8A4
:102D8E00010E0801616F030E626FD5C263F852EC3B
:102D9E000DF072C05FF873C060F8010E616F050E22
:102DAE00626FD5C263F852EC0DF001012451030A93
:102DBE0019E17AC05FF87BC060F8010E0801616FFF
:102DCE00030E626FD5C263F852EC0DF078C05FF857
:102DDE0079C060F8010E616F050E626FD5C263F89F
:102DEE0052EC0DF00001DF51020A57E101012451AE
:102DFE00010A19E176C05FF877C060F8010E08018C
:102E0E00616F030E626FD5C263F852EC0DF074C0A1
:102E1E005FF875C060F8010E616F050E626FD5C266
:102E2E0063F852EC0DF001012451020A19E176C04B
:102E3E005FF877C060F8010E0801616F030E626FD4
:102E4E00D5C263F852EC0DF072C05FF873C060F833
:102E5E00010E616F050E626FD5C263F852EC0DF074
:102E6E0001012451030A19E176C05FF877C060F8BA
:102E7E00010E0801616F030E626FD5C263F852EC4A
:102E8E000DF078C05FF879C060F8010E616F050E25
:0C2E9E00626FD5C263F852EC0DF0120018
:102EAA0058C85FF85AC860F859C861F85CC862F82F
:102EBA0027EC0EF058C85FF85AC860F85BC861F88A
:102ECA005CC862F827EC0EF059C85FF85BC860F876
:102EDA0058C861F85CC862F874EC0BF059C85FF81E
:102EEA005BC860F85AC861F85CC862F874EC0BF009
:022EFA001200C4
:102EFC0082AE36D084B034D0800E0801726F0F0EC3
:102F0C00736F030E746FC4EC0AF0580E726F020EDE
:102F1C00736F640E746F000E756FF7EC09F02C0E66
:102F2C000801726F010E736F320E746F000E756FA5
:102F3C00F7EC09F0580E0801726F020E736F640EF5
:102F4C00746F000E756FF7EC09F02C0E0801726FA0
:102F5C00010E736F320E746F000E756FF7EC09F083
:102F6C0082BE36D084A034D0800E0801726F0F0E52
:102F7C00736F030E746FC4EC0AF0780E726F050E4B
:102F8C00736F640E746F000E756FF7EC09F0200E02
:102F9C000801726F030E736F320E746F000E756F33
:102FAC00F7EC09F0780E0801726F050E736F640E62
:102FBC00746F000E756FF7EC09F0200E0801726F3C
:102FCC00030E736F320E746F000E756FF7EC09F011
:102FDC0082AE36D084A034D0800E0801726F0F0EF2
:102FEC00736F030E746FC4EC0AF0580E726F020EFE
:102FFC00736F640E746F000E756FF7EC09F02C0E86
:10300C000801726F010E736F320E746F000E756FC4
:10301C00F7EC09F0580E0801726F020E736F640E14
:10302C00746F000E756FF7EC09F02C0E0801726FBF
:10303C00010E736F320E746F000E756FF7EC09F0A2
:02304C00120070
:10304E0008015F6B606B2A0E616F000E626F0C0ED3
:10305E00636F000E646F2A0E656F000E666FD5C229
:10306E0067F81DEC0CF07F0E5F6F000E606F180E90
:10307E00616F000E626F730E636F000E646F180E39
:10308E00656F000E666FD5C267F81DEC0CF012006E
:10309E0019ECBBF00F01256B246B236B926A070EA4
:1030AE00936EFF0E946EFF0E956E966A986A846A02
:1030BE00F19CF292F288F19AF090F086F198F092EB
:1030CE00F088F28E7BEC0FF00C0E0801726FB5ECEF
:1030DE0009F0010E0801726FB5EC09F0340E0C6E9A
:1030EE00F10E0D6E0D2EFED70C2EFCD7000000003B
:1030FE00010E0801586F050E596F250E5A6F010EFD
:10310E005B6F03EC0FF0020E0801586F040E596F3F
:10311E00850E5A6F010E5B6F03EC0FF0150E0B6EE2
:10312E004B0E0C6EBE0E0D6E0D2EFED70C2EFCD75A
:10313E000B2EFAD70000010E0801726FB5EC09F0E4
:10314E00D5EC0EF0AEEC0EF0940E08015F6FED0EA6
:10315E00606F000E616F61EC0EF0110E0B6E3C0E87
:10316E000C6ECB0E0D6E0D2EFED70C2EFCD70B2E2D
:10317E00FAD75F6BF3EC0BF0520E586F740E596F5B
:10318E00010E5A6F050E5B6F070E5C6F200E5D6FA2
:10319E00000E5E6FC3EC0EF07D0E08015F6F010E28
:1031AE00606F616B020E626F010E636F52EC0DF079
:1031BE00940E586F520E596F000E5A6F080E5B6FB9
:1031CE00070E5C6F200E5D6F000E5E6FC3EC0EF08F
:1031DE009C0E08015F6F010E606F0F0E616F040E83
:1031EE00626F010E636F52EC0DF0520E586F740E3B
:1031FE00596F010E5A6F050E5B6F070E5C6F200E36
:10320E005D6F000E5E6FC3EC0EF0910E08015F6FE6
:10321E00010E606F3C0E616F070E626F010E636FE1
:10322E0052EC0DF05F6BF3EC0BF0110E0B6E3C0ECF
:10323E000C6ECB0E0D6E0D2EFED70C2EFCD70B2E5C
:10324E00FAD7940E5F6F010E606F010E616F61EC25
:10325E000EF0110E0B6E3C0E0C6ECB0E0D6E0D2E77
:10326E00FED70C2EFCD70B2EFAD7010E0101245DD2
:10327E0002E27CC124F17951010A010ED8A4000E9C
:10328E00016E7851010A010ED8A4000E006E005096
:10329E0001160001DF51010A010ED8A4000E006EC6
:1032AE000050011601012351010A010ED8A4000E8F
:1032BE00006E0150001609E0940E08015F6F050EB6
:1032CE00606F010E616F61EC0EF001017951020A1F
:1032DE00010ED8A4000E016E7851010A010ED8A479
:1032EE00000E006E005001160001DF51010A010EA2
:1032FE00D8A4000E006E0050011601012351010AE0
:10330E00010ED8A4000E006E0150001609E0940EB6
:10331E0008015F6FF90E606F000E616F61EC0EF0C9
:10332E0001017951030A010ED8A4000E016E7851E5
:10333E00010A010ED8A4000E006E00500116000105
:10334E00DF51010A010ED8A4000E006E00500116C6
:10335E0001012351010A010ED8A4000E006E015086
:10336E00001609E0940E08015F6FFD0E606F000EEF
:10337E00616F61EC0EF001017951010A010ED8A4C2
:10338E00000E016E7851010A010ED8A4000E006ED7
:10339E00005001160001DF51020A010ED8A4000EE2
:1033AE00006E0050011601012351010A010ED8A42E
:1033BE00000E006E0150001609E0940E08015F6FBA
:1033CE00550E606F010E616F61EC0EF001017951C7
:1033DE00020A010ED8A4000E016E7851010A010EE8
:1033EE00D8A4000E006E005001160001DF51020A33
:1033FE00010ED8A4000E006E0050011601012351DB
:10340E00010A010ED8A4000E006E0150001609E04C
:10341E00940E08015F6F590E606F010E616F61ECC3
:10342E000EF001017951030A010ED8A4000E016EAF
:10343E007851010A010ED8A4000E006E005001163C
:10344E000001DF51020A010ED8A4000E006E0050DA
:10345E00011601012351010A010ED8A4000E006EBF
:10346E000150001609E0940E08015F6F5D0E606F4B
:10347E00010E616F61EC0EF001017951010A010E2E
:10348E00D8A4000E016E7851010A010ED8A4000EC8
:10349E00006E005001160001DF51010A010ED8A482
:1034AE00000E006E0050011601012351020A010E9A
:1034BE00D8A4000E006E0150001609E0940E08010B
:1034CE005F6F510E606F010E616F61EC0EF00101C6
:1034DE007951020A010ED8A4000E016E7851010A2C
:1034EE00010ED8A4000E006E005001160001DF512F
:1034FE00010A010ED8A4000E006E00500116010143
:10350E002351020A010ED8A4000E006E01500016BF
:10351E0009E0940E08015F6F690E606F010E616F16
:10352E0061EC0EF001017951030A010ED8A4000ED0
:10353E00016E7851010A010ED8A4000E006E0050E3
:10354E0001160001DF51010A010ED8A4000E006E13
:10355E000050011601012351020A010ED8A4000EDB
:10356E00006E0150001609E0940E08015F6F6D0E9B
:10357E00606F010E616F61EC0EF001017951010A6D
:10358E00010ED8A4000E016E7851010A010ED8A4C6
:10359E00000E006E005001160001DF51020A010EEE
:1035AE00D8A4000E006E0050011601012351020A2C
:1035BE00010ED8A4000E006E0150001609E0940E04
:1035CE0008015F6F610E606F010E616F61EC0EF0AE
:1035DE0001017951020A010ED8A4000E016E785134
:1035EE00010A010ED8A4000E006E00500116000153
:1035FE00DF51020A010ED8A4000E006E0050011613
:10360E0001012351020A010ED8A4000E006E0150D2
:10361E00001609E0940E08015F6F650E606F010ED3
:10362E00616F61EC0EF001017951030A010ED8A40D
:10363E00000E016E7851010A010ED8A4000E006E24
:10364E00005001160001DF51020A010ED8A4000E2F
:10365E00006E0050011601012351020A010ED8A47A
:10366E00000E006E0150001609E0940E08015F6F07
:10367E00350E606F010E616F61EC0EF001017B5132
:10368E00010A010ED8A4000E016E7851020A010E35
:10369E00D8A4000E006E005001160001DF51010A81
:1036AE00010ED8A4000E006E005001160101235128
:1036BE00010A010ED8A4000E006E0150001609E09A
:1036CE00940E08015F6F390E606F010E616F61EC31
:1036DE000EF001017B51020A010ED8A4000E016EFC
:1036EE007851020A010ED8A4000E006E0050011689
:1036FE000001DF51010A010ED8A4000E006E005029
:10370E00011601012351010A010ED8A4000E006E0C
:10371E000150001609E0940E08015F6F2D0E606FC8
:10372E00010E616F61EC0EF001017B51030A010E77
:10373E00D8A4000E016E7851020A010ED8A4000E14
:10374E00006E005001160001DF51010A010ED8A4CF
:10375E00000E006E0050011601012351010A010EE8
:10376E00D8A4000E006E0150001609E0940E080158
:10377E005F6F310E606F010E616F61EC0EF0010133
:10378E007B51010A010ED8A4000E016E7851020A77
:10379E00010ED8A4000E006E005001160001DF517C
:1037AE00020A010ED8A4000E006E0050011601018F
:1037BE002351010A010ED8A4000E006E015000160E
:1037CE0009E0940E08015F6F3D0E606F010E616F90
:1037DE0061EC0EF001017B51020A010ED8A4000E1D
:1037EE00016E7851020A010ED8A4000E006E005030
:1037FE0001160001DF51020A010ED8A4000E006E60
:10380E000050011601012351010A010ED8A4000E29
:10381E00006E0150001609E0940E08015F6F490E0C
:10382E00606F010E616F61EC0EF001017B51030AB6
:10383E00010ED8A4000E016E7851020A010ED8A412
:10384E00000E006E005001160001DF51020A010E3B
:10385E00D8A4000E006E0050011601012351010A7A
:10386E00010ED8A4000E006E0150001609E0940E51
:10387E0008015F6F4D0E606F010E616F61EC0EF00F
:10388E0001017B51010A010ED8A4000E016E785180
:10389E00020A010ED8A4000E006E0050011600019F
:1038AE00DF51010A010ED8A4000E006E0050011661
:1038BE0001012351020A010ED8A4000E006E015020
:1038CE00001609E0940E08015F6F410E606F010E45
:1038DE00616F61EC0EF001017B51020A010ED8A45A
:1038EE00000E016E7851020A010ED8A4000E006E71
:1038FE00005001160001DF51010A010ED8A4000E7E
:10390E00006E0050011601012351020A010ED8A4C7
:10391E00000E006E0150001609E0940E08015F6F54
:10392E00450E606F010E616F61EC0EF001017B516F
:10393E00030A010ED8A4000E016E7851020A010E80
:10394E00D8A4000E006E005001160001DF51010ACE
:10395E00010ED8A4000E006E005001160101235175
:10396E00020A010ED8A4000E006E0150001609E0E6
:10397E00940E08015F6FE50E606F000E616F61ECD3
:10398E000EF001017B51010A010ED8A4000E016E4A
:10399E007851020A010ED8A4000E006E00500116D6
:1039AE000001DF51020A010ED8A4000E006E005075
:1039BE00011601012351020A010ED8A4000E006E59
:1039CE000150001609E0940E08015F6F810E606FC2
:1039DE00000E616F61EC0EF001017B51020A010EC7
:1039EE00D8A4000E016E7851020A010ED8A4000E62
:1039FE00006E005001160001DF51020A010ED8A41C
:103A0E00000E006E0050011601012351020A010E34
:103A1E00D8A4000E006E0150001609E0940E0801A5
:103A2E005F6F850E606F000E616F61EC0EF001012D
:103A3E007B51030A010ED8A4000E016E7851020AC2
:103A4E00010ED8A4000E006E005001160001DF51C9
:103A5E00020A010ED8A4000E006E005001160101DC
:103A6E002351020A010ED8A4000E006E015000165A
:103A7E0009E0940E08015F6F790E606F000E616FA2
:103A8E0061EC0EF00201D951010A010ED8A4000E0C
:103A9E00016E01017851030A010ED8A4000E006ECA
:103AAE00005001160001DF51010A010ED8A4000ECC
:103ABE00006E0050011601012351010A010ED8A417
:103ACE00000E006E0150001609E0940E08015F6FA3
:103ADE007D0E606F000E616F61EC0EF00201D95128
:103AEE00020A010ED8A4000E016E01017851030ADC
:103AFE00010ED8A4000E006E005001160001DF5119
:103B0E00010A010ED8A4000E006E0050011601012C
:103B1E002351010A010ED8A4000E006E01500016AA
:103B2E0009E0940E08015F6F890E606F000E616FE1
:103B3E0061EC0EF00201D951010A010ED8A4000E5B
:103B4E00016E01017851030A010ED8A4000E006E19
:103B5E00005001160001DF51020A010ED8A4000E1A
:103B6E00006E0050011601012351010A010ED8A466
:103B7E00000E006E0150001609E0940E08015F6FF2
:103B8E00950E606F000E616F61EC0EF00201D9515F
:103B9E00020A010ED8A4000E016E01017851030A2B
:103BAE00010ED8A4000E006E005001160001DF5168
:103BBE00020A010ED8A4000E006E0050011601017B
:103BCE002351010A010ED8A4000E006E01500016FA
:103BDE0009E0940E08015F6F990E606F000E616F21
:103BEE0061EC0EF00201D951010A010ED8A4000EAB
:103BFE00016E01017851030A010ED8A4000E006E69
:103C0E00005001160001DF51010A010ED8A4000E6A
:103C1E00006E0050011601012351020A010ED8A4B4
:103C2E00000E006E0150001609E0940E08015F6F41
:103C3E008D0E606F000E616F61EC0EF00201D951B6
:103C4E00020A010ED8A4000E016E01017851030A7A
:103C5E00010ED8A4000E006E005001160001DF51B7
:103C6E00010A010ED8A4000E006E005001160101CB
:103C7E002351020A010ED8A4000E006E0150001648
:103C8E0009E0940E08015F6F910E606F000E616F78
:103C9E0061EC0EF00201D951010A010ED8A4000EFA
:103CAE00016E01017851030A010ED8A4000E006EB8
:103CBE00005001160001DF51020A010ED8A4000EB9
:103CCE00006E0050011601012351020A010ED8A404
:103CDE00000E006E0150001609E0940E08015F6F91
:103CEE00610E606F000E616F61EC0EF00201D95132
:103CFE00020A010ED8A4000E016E01017851030ACA
:103D0E00010ED8A4000E006E005001160001DF5106
:103D1E00020A010ED8A4000E006E00500116010119
:103D2E002351020A010ED8A4000E006E0150001697
:103D3E0009E0940E08015F6F650E606F000E616FF3
:103D4E0061EC0EF001017A51010A010ED8A4000EA9
:103D5E00016E7851040A010ED8A4000E006E0050B8
:103D6E0001160001DF51010A010ED8A4000E006EEB
:103D7E000050011601012351010A010ED8A4000EB4
:103D8E00006E0150001609E0940E08015F6F5D0E83
:103D9E00606F000E616F61EC0EF001017A51010A45
:103DAE00010ED8A4000E016E7851040A010ED8A49B
:103DBE00000E006E005001160001DF51010A010EC7
:103DCE00D8A4000E006E0050011601012351020A04
:103DDE00010ED8A4000E006E0150001609E0940EDC
:103DEE0008015F6F590E606F000E616F61EC0EF08F
:103DFE0001017A51010A010ED8A4000E016E78510C
:103E0E00040A010ED8A4000E006E00500116000127
:103E1E00DF51020A010ED8A4000E006E00500116EA
:103E2E0001012351010A010ED8A4000E006E0150AB
:103E3E00001609E0940E08015F6F710E606F000EA0
:103E4E00616F61EC0EF001017A51010A010ED8A4E6
:103E5E00000E016E7851040A010ED8A4000E006EF9
:103E6E00005001160001DF51020A010ED8A4000E07
:103E7E00006E0050011601012351020A010ED8A452
:103E8E00000E006E0150001609E0940E08015F6FDF
:103E9E00750E606F000E616F61EC0EF001017A51CC
:103EAE00020A010ED8A4000E016E7851040A010E0A
:103EBE00D8A4000E006E005001160001DF51010A59
:103ECE00010ED8A4000E006E005001160101235100
:103EDE00010A010ED8A4000E006E0150001609E072
:103EEE00940E08015F6F690E606F000E616F61ECDA
:103EFE000EF001017A51020A010ED8A4000E016ED5
:103F0E007851040A010ED8A4000E006E005001165E
:103F1E000001DF51010A010ED8A4000E006E005000
:103F2E00011601012351020A010ED8A4000E006EE3
:103F3E000150001609E0940E08015F6F6D0E606F60
:103F4E00000E616F61EC0EF001017A51020A010E52
:103F5E00D8A4000E016E7851040A010ED8A4000EEA
:103F6E00006E005001160001DF51020A010ED8A4A6
:103F7E00000E006E0050011601012351010A010EC0
:103F8E00D8A4000E006E0150001609E0940E080130
:103F9E005F6F9D0E606F000E616F61EC0EF00101A0
:103FAE007A51020A010ED8A4000E016E7851040A4D
:103FBE00010ED8A4000E006E005001160001DF5154
:103FCE00020A010ED8A4000E006E00500116010167
:103FDE002351020A010ED8A4000E006E01500016E5
:103FEE0009E0940E08015F6FCD0E606F000E616FD9
:103FFE0061EC0EF001017851050A010ED8A4000EF5
:10400E00016E0001DF51010A010ED8A4000E006EF0
:10401E000050011601012351010A010ED8A4000E11
:10402E00006E0150001609E0940E08015F6FD10E6C
:10403E00606F000E616F61EC0EF001017851050AA0
:10404E00010ED8A4000E016E0001DF51020A010E0E
:10405E00D8A4000E006E0050011601012351010A72
:10406E00010ED8A4000E006E0150001609E0940E49
:10407E0008015F6FC50E606F000E616F61EC0EF090
:10408E0001017851050A010ED8A4000E016E00013F
:10409E00DF51010A010ED8A4000E006E0050011669
:1040AE0001012351020A010ED8A4000E006E015028
:1040BE00001609E0940E08015F6FC90E606F000EC6
:1040CE00616F61EC0EF001017851050A010ED8A462
:1040DE00000E016E0001DF51020A010ED8A4000E7F
:1040EE00006E0050011601012351020A010ED8A4E0
:1040FE00000E006E0150001609E0940E08015F6F6D
:10410E00DD0E606F000E616F61EC0EF001017851F3
:10411E00060A010ED8A4000E016E0001DF51010A3D
:10412E00010ED8A4000E006E00500116010123519D
:10413E00010A010ED8A4000E006E0150001609E00F
:10414E00940E08015F6FE10E606F000E616F61ECFF
:10415E000EF001017851060A010ED8A4000E016E70
:10416E000001DF51020A010ED8A4000E006E0050AD
:10417E00011601012351010A010ED8A4000E006E92
:10418E000150001609E0940E08015F6FD50E606FA6
:10419E00000E616F61EC0EF001017851060A010EFE
:1041AE00D8A4000E016E0001DF51010A010ED8A441
:1041BE00000E006E0050011601012351020A010E7D
:1041CE00D8A4000E006E0150001609E0940E0801EE
:1041DE005F6FD90E606F000E616F61EC0EF0010122
:1041EE007851060A010ED8A4000E016E0001DF51AF
:1041FE00020A010ED8A4000E006E00500116010135
:10420E002351020A010ED8A4000E006E01500016B2
:10421E0009E0940E08015F6FC10E606F000E616FB2
:10422E0061EC0EF001017851080A02E18FEC16F0F4
:10423E0001017851070A01E102D042EF19F00201A3
:10424E00D951020A2AE1000E0101111902E1000EF4
:10425E00101923E124517C1920E12351010A1DE19B
:10426E000001DF51010A19E108015F6BF3EC0BF05D
:10427E00940E5F6FA90E606F000E616F61EC0EF011
:10428E001F0E0B6E710E0C6E1E0E0D6E0D2EFED7CA
:10429E000C2EFCD70B2EFAD700000201D951020AC0
:1042AE002AE1000E0101111902E1000E101923E19D
:1042BE0024517C1920E12351020A1DE10001DF5136
:1042CE00010A19E108015F6BF3EC0BF0940E5F6FBE
:1042DE00AD0E606F000E616F61EC0EF01F0E0B6E77
:1042EE00710E0C6E1E0E0D6E0D2EFED70C2EFCD703
:1042FE000B2EFAD700000201D951020A2AE1000E54
:10430E000101111902E1000E101923E124517C194B
:10431E0020E12351010A1DE10001DF51020A19E1DA
:10432E0008015F6BF3EC0BF0940E5F6FA10E606FE4
:10433E00000E616F61EC0EF01F0E0B6E710E0C6EA7
:10434E001E0E0D6E0D2EFED70C2EFCD70B2EFAD791
:10435E0000000201D951020A2AE1000E01011119D1
:10436E0002E1000E101923E124517C1920E12351A2
:10437E00020A1DE10001DF51020A19E108015F6B1B
:10438E00F3EC0BF0940E5F6FA50E606F000E616F75
:10439E0061EC0EF01F0E0B6E710E0C6E1E0E0D6E7E
:1043AE000D2EFED70C2EFCD70B2EFAD70000D7C23F
:1043BE005FF8F3EC0BF00001DF51010A0DE1CD0EB9
:1043CE0008015F6F010E606F190E616F030E626F51
:1043DE00D5C263F852EC0DF00001DF51020A0DE177
:1043EE00BE0E08015F6F010E606F190E616F030E36
:1043FE00626FD5C263F852EC0DF00801150E586FBE
:10440E00230E596F690E5A6F2D0E5B6FD5C25CF875
:10441E0055EC17F0536B150E535D22E2150E586FC7
:10442E00230E596F5351010F026E02C000F0003679
:10443E000090003600900050150F5A6F2D0E5B6FD6
:10444E00D5C25CF81BEC16F0D00E0C6EC90E0D6EBC
:10445E000D2EFED70C2EFCD700000000532BDBD701
:10446E00D7C25FF8F3EC0BF0DCEC15F0586B0A0ECC
:10447E00596F7F0E5A6F3F0E5B6FD5C25CF855ECCD
:10448E0017F00001DF51010A0CE1DDC05FF8DEC05C
:10449E0060F8020E0801616F626BD5C263F852ECD0
:1044AE000DF00001DF51020A0CE1C7C05FF8C8C071
:1044BE0060F8020E0801616F626BD5C263F852ECB0
:1044CE000DF00101DA6B86B203D082B801D007D0AD
:1044DE000101010EDA6F020E0001B56F02D001016B
:1044EE00DA6B0101DA53EFE086A203D0020E00016F
:1044FE00B56F82A803D00001030EB56F86A403D05A
:10450E000001010EB56F82A402D00001B56B00014F
:10451E00B551020AD8A4AFD00201D42B7E0ED45DC1
:10452E0012E3010124072451000804E259EC15F0AE
:10453E003CEF19F02FEC10F00001B451010A02E12A
:10454E003CEF19F0F9D70201DA05006E016A000E90
:10455E00015A190E046E000E056E47EC08F0F40EAB
:10456E000024E16E020E0120E26ED4C2E6FFDA05EF
:10457E00006E016A000E015A190E046E000E056ED1
:10458E0047EC08F0F40E0026020E0122010E002464
:10459E00E16E000E0120E26ED8C2E6FFF36BDA0583
:1045AE00016E026A000E025A800E006E800E021814
:1045BE00005C02E10150F35D5EE2190E006E000E2A
:1045CE00016EF3C204F0000E056E47EC08F0F40E17
:1045DE0000240801566F020E0120576F0201F3519D
:1045EE00010F006E016A000E0122190E046E000EFC
:1045FE00056E47EC08F0F40E0024E96E020E012061
:10460E00EA6E56C8E1FF57C8E2FFEECFE6FF190E7D
:10461E00006E000E016EF3C204F0000E056E47EC44
:10462E0008F0F40E0026020E0122010E00240801ED
:10463E00566F000E0120576F0201F351010F006EED
:10464E00016A000E0122190E046E000E056E47EC73
:10465E0008F0F40E0026020E0122010E0024E96E6F
:10466E00000E0120EA6E56C8E1FF57C8E2FFEECFFA
:10467E00E6FFF32B94D70001B551030AD8A4AFD0AF
:10468E000201D82B3F0ED85D12E3010124072451FD
:10469E00000804E259EC15F03CEF19F02FEC10F085
:1046AE000001B451010A02E13CEF19F0F9D7020101
:1046BE00DA05006E016A000E015A190E046E000E24
:1046CE00056E47EC08F0F40E0026020E0122010ED4
:1046DE000024E16E000E0120E26ED8C2E6FFDA057C
:1046EE00006E016A000E015A190E046E000E056E60
:1046FE0047EC08F0F40E0024E16E020E0120E26E8B
:10470E00D4C2E6FFF36BDA05016E026A000E025A9E
:10471E00800E006E800E0218005C02E10150F35D07
:10472E005EE2190E006E000E016EF3C204F0000E72
:10473E00056E47EC08F0F40E0026020E0122010E63
:10474E0000240801566F000E0120576F0201F3512D
:10475E00010F006E016A000E0122190E046E000E8A
:10476E00056E47EC08F0F40E0026020E0122010E33
:10477E000024E96E000E0120EA6E56C8E1FF57C80C
:10478E00E2FFEECFE6FF190E006E000E016EF3C2D1
:10479E0004F0000E056E47EC08F0F40E002408013C
:1047AE00566F020E0120576F0201F351010F006E7A
:1047BE00016A000E0122190E046E000E056E47EC02
:1047CE0008F0F40E0024E96E020E0120EA6E56C8BF
:1047DE00E1FF57C8E2FFEECFE6FFF32B94D70001BF
:1047EE00B551010AD8A4AFD00201D807D8510A0892
:1047FE0012E3010124072451000804E259EC15F0DC
:10480E003CEF19F02FEC10F00001B451010A02E157
:10481E003CEF19F0F9D70201DA05006E016A000EBD
:10482E00015A190E046E000E056E47EC08F0F40ED8
:10483E000026020E0122010E0024E16E000E012060
:10484E00E26ED8C2E6FFDA05006E016A000E015A6A
:10485E00190E046E000E056E47EC08F0F40E0024DF
:10486E00E16E020E0120E26ED4C2E6FFF36BDA05B2
:10487E00016E026A000E025A800E006E800E021841
:10488E00005C02E10150F35D5EE2190E006E000E57
:10489E00016EF3C204F0000E056E47EC08F0F40E44
:1048AE000026020E0122010E00240801566F000E92
:1048BE000120576F0201F351010F006E016A000EC5
:1048CE000122190E046E000E056E47EC08F0F40E70
:1048DE000026020E0122010E0024E96E000E0120B8
:1048EE00EA6E56C8E1FF57C8E2FFEECFE6FF190E9B
:1048FE00006E000E016EF3C204F0000E056E47EC62
:10490E0008F0F40E00240801566F020E0120576FB6
:10491E000201F351010F006E016A000E0122190E01
:10492E00046E000E056E47EC08F0F40E0024E96EDE
:10493E00020E0120EA6E56C8E1FF57C8E2FFEECF25
:10494E00E6FFF32B94D70001B551000AD8A4AFD0DF
:10495E000201D407010ED45D12E201012407245195
:10496E00000804E259EC15F03CEF19F02FEC10F0B2
:10497E000001B451010A02E13CEF19F0F9D702012E
:10498E00DA05006E016A000E015A190E046E000E51
:10499E00056E47EC08F0F40E0026020E0122010E01
:1049AE000024E16E000E0120E26ED8C2E6FFDA05A9
:1049BE00006E016A000E015A190E046E000E056E8D
:1049CE0047EC08F0F40E0024E16E020E0120E26EB8
:1049DE00D4C2E6FFF36BDA05016E026A000E025ACC
:1049EE00800E006E800E0218005C02E10150F35D35
:1049FE005EE2190E006E000E016EF3C204F0000EA0
:104A0E00056E47EC08F0F40E0026020E0122010E90
:104A1E0000240801566F000E0120576F0201F3515A
:104A2E00010F006E016A000E0122190E046E000EB7
:104A3E00056E47EC08F0F40E0026020E0122010E60
:104A4E000024E96E000E0120EA6E56C8E1FF57C839
:104A5E00E2FFEECFE6FF190E006E000E016EF3C2FE
:104A6E0004F0000E056E47EC08F0F40E0024080169
:104A7E00566F020E0120576F0201F351010F006EA7
:104A8E00016A000E0122190E046E000E056E47EC2F
:104A9E0008F0F40E0024E96E020E0120EA6E56C8EC
:104AAE00E1FF57C8E2FFEECFE6FFF32B94D70201EA
:104ABE00F36BDA51F35D23E2190E006E000E016EF8
:104ACE00F3C204F0000E056E47EC08F0F40E00265B
:104ADE00020E012200C0E9FF01C0EAFFEECF72F81C
:104AEE00010E0024E96E000E0120EA6EEECF73F87F
:104AFE00D5C274F8BEEC08F00201F32BDAD7F4C27B
:104B0E0072F8F5C273F8D6C274F8BEEC08F0020162
:104B1E00D451DB190DE0DB51010F016E026A000E5C
:104B2E000222000E021802E10150D41901E0F9D060
:104B3E00D851DC19D8A4F5D07EEC17F00201DA2B8F
:104B4E00DCEC15F00201DD2B7BEC0FF00C0E0801F6
:104B5E00726FB5EC09F0010E0801726FB5EC09F039
:104B6E00340E0C6EF10E0D6E0D2EFED70C2EFCD7E4
:104B7E0000000000010E0801586F010E596FA70EBC
:104B8E005A6F010E5B6F03EC0FF0150E0B6E4B0E92
:104B9E000C6EBE0E0D6E0D2EFED70C2EFCD70B2EF0
:104BAE00FAD700000101BD6B0F0EBD5D19E21C0EA0
:104BBE000801726FB5EC09F0050E0B6E0F0E0C6E40
:104BCE00F10E0D6E0D2EFED70C2EFCD70B2EFAD736
:104BDE00010E0801726FB5EC09F00101BD2BE4D78F
:104BEE000D0E0001DD250801566F000E0001DE21BD
:104BFE000801576F0A0E046EDDC200F0E4EC0BF0F4
:104C0E00300E002656C8E1FF57C8E2FF00C0E6FF8F
:104C1E000E0E0001DD250801566F000E0001DE218B
:104C2E000801576F0A0E046EDDC200F0E4EC0BF0C3
:104C3E0008C000F0300E002656C8E1FF57C8E2FF4C
:104C4E0000C0E6FFDDC05FF8DEC060F8020E616FE7
:104C5E00626BD5C263F852EC0DF0030E046EDDC22A
:104C6E0000F0E4EC0BF008C000F00050000A59E12F
:104C7E002EEC16F07BEC0FF00C0E0801726FB5ECFB
:104C8E0009F0010E0801726FB5EC09F0340E0C6ECE
:104C9E00F10E0D6E0D2EFED70C2EFCD7000000006F
:104CAE00010E0801586F010E596FAD0E5A6F010EAD
:104CBE005B6F03EC0FF0020E0801586F010E596F77
:104CCE006C0E5A6F010E5B6F03EC0FF0150E0B6E30
:104CDE004B0E0C6EBE0E0D6E0D2EFED70C2EFCD78F
:104CEE000B2EFAD700000101BD6B0F0EBD5D19E250
:104CFE001C0E0801726FB5EC09F0050E0B6E0F0E4F
:104D0E000C6EF10E0D6E0D2EFED70C2EFCD70B2E4B
:104D1E00FAD7010E0801726FB5EC09F00101BD2B37
:104D2E00E4D7030E0201DD5DD8A0C6D027EC18F043
:104D3E007BEC0FF00C0E0801726FB5EC09F0010E52
:104D4E000801726FB5EC09F0340E0C6EF10E0D6E9B
:104D5E000D2EFED70C2EFCD700000000010E080110
:104D6E00586F010E596F410E5A6F010E5B6F03ECB7
:104D7E000FF0020E0801586F010E596F350E5A6F63
:104D8E00010E5B6F03EC0FF00B0E0B6E260E0C6E0E
:104D9E005D0E0D6E0D2EFED70C2EFCD70B2EFAD7F8
:104DAE00000000000101BD6B0F0EBD5D19E21C0E6F
:104DBE000801726FB5EC09F0050E0B6E0F0E0C6E3E
:104DCE00F10E0D6E0D2EFED70C2EFCD70B2EFAD734
:104DDE00010E0801726FB5EC09F00101BD2BE4D78D
:104DEE000201D4510C084FE3D8512A0A4CE17BEC56
:104DFE000FF00C0E0801726FB5EC09F0010E0801F0
:104E0E00726FB5EC09F0340E0C6EF10E0D6E0D2EA8
:104E1E00FED70C2EFCD700000000010E0801586FC3
:104E2E00010E596F5B0E5A6F010E5B6F03EC0FF0A4
:104E3E00020E0801586F010E596F510E5A6F010E76
:104E4E005B6F03EC0FF00B0E0B6E260E0C6E5D0EF1
:104E5E000D6E0D2EFED70C2EFCD70B2EFAD70000A2
:104E6E000000010124072451000804E259EC15F05A
:104E7E003CEF19F02FEC10F00001B451010A02E1E1
:104E8E003CEF19F0F9D7730E0201D45D15E3D8513A
:104E9E002A0A12E1010124072451000804E259EC08
:104EAE0015F03CEF19F02FEC10F00001B451010A8F
:104EBE0002E13CEF19F0F9D7040E0201DD5DD8A036
:104ECE00A3D0DEEC0FF07BEC0FF00C0E0801726F2E
:104EDE00B5EC09F0010E0801726FB5EC09F0340E55
:104EEE000C6EF10E0D6E0D2EFED70C2EFCD70000A3
:104EFE000000010E0801586F010E596F2F0E5A6FE8
:104F0E00010E5B6F03EC0FF0010E0801726FB5EC32
:104F1E0009F00B0E0B6E260E0C6E5D0E0D6E0D2E29
:104F2E00FED70C2EFCD70B2EFAD700000000010185
:104F3E00BD6B0F0EBD5D19E21C0E0801726FB5EC54
:104F4E0009F0050E0B6E0F0E0C6EF10E0D6E0D2E82
:104F5E00FED70C2EFCD70B2EFAD7010E0801726F5E
:104F6E00B5EC09F00101BD2BE4D7BD6B0F0EBD5D95
:104F7E0019E2180E0801726FB5EC09F0050E0B6EF2
:104F8E000F0E0C6EF10E0D6E0D2EFED70C2EFCD7E5
:104F9E000B2EFAD7010E0801726FB5EC09F0010164
:104FAE00BD2BE4D70201D851120815E3D451400AA3
:104FBE0012E1010124072451000804E259EC15F016
:104FCE003CEF19F02FEC10F00001B451010A02E190
:104FDE003CEF19F0F9D7370E0201D85D15E3D45125
:104FEE00400A12E1010124072451000804E259ECA1
:104FFE0015F03CEF19F02FEC10F00001B451010A3E
:10500E0002E13CEF19F0F9D7050E0201DD5D3AE33E
:10501E0006EC10F00201D8512A0818E3200ED85DD4
:10502E0015E3D4510C0A12E10101240724510008A2
:10503E0004E259EC15F03CEF19F02FEC10F00001E2
:10504E00B451010A02E13CEF19F0F9D70201D8512F
:10505E00240818E3180ED85D15E3D451730A12E133
:10506E00010124072451000804E259EC15F03CEF2D
:10507E0019F02FEC10F00001B451010A02E13CEFDF
:10508E0019F0F9D70201D4510801541914E10201A3
:10509E00D851080155190EE05551010F016E026AE3
:1050AE00000E0222000E021803E101500201D8196F
:1050BE0001E001D023D008015451010F016E026AA4
:1050CE00000E0222000E021803E101500201D41953
:1050DE0014E10201D851080155190EE05551010F86
:1050EE00016E026A000E0222000E021803E1015048
:1050FE000201D81901E001D001D0A8D054C872F82D
:10510E0055C873F8D6C274F8BEEC08F05451010FAE
:10511E00726F55C873F8D6C274F8BEEC08F05451CD
:10512E00010F726F5551010F736FD6C274F8BEEC3A
:10513E0008F054C872F85551010F736FD6C274F847
:10514E00BEEC08F046EC0FF0020E0201DA27DD2B62
:10515E000001DF51010A3DE10D0EDD250801566FFC
:10516E00000E0001DE210801576F0A0E046EDDC22B
:10517E0000F0E4EC0BF0300E002656C8E1FF57C8E5
:10518E00E2FF00C0E6FF0E0E0001DD250801566F9E
:10519E00000E0001DE210801576F0A0E046EDDC2FB
:1051AE0000F0E4EC0BF008C000F0300E002656C8FC
:1051BE00E1FF57C8E2FF00C0E6FFDDC05FF8DEC0CA
:1051CE0060F8020E616F626BD5C263F852EC0DF09F
:1051DE003DD00D0E0001C7250801566F000E0001CF
:1051EE00C8210801576F0A0E046EDDC200F0E4EC10
:1051FE000BF0300E002656C8E1FF57C8E2FF00C084
:10520E00E6FF0E0E0001C7250801566F000E0001C5
:10521E00C8210801576F0A0E046EDDC200F0E4ECDF
:10522E000BF008C000F0300E002656C8E1FF57C83C
:10523E00E2FF00C0E6FFC7C05FF8C8C060F8020E0C
:10524E00616F626BD5C263F852EC0DF00201F36B25
:10525E00800E006E800E01012E19005C03E12D51AF
:10526E000201F35D0DE2820E0C6EDD0E0D6E02017B
:10527E000D2EFDD70C2EFBD700000000F32BE8D728
:06528E007BEF22F0FFD7C8
:020000040001F9
:1076320010EE1DF0BE0E006E030E016E940EF66E7D
:0E764200710EF76E010EF86EBBEC0EF012002A
:020000040000FA
:10529400000000000000000000065F5F0600000040
:1052A4000007070007070000147F7F147F7F1400A6
:1052B400242E6B6B3A120000466630180C666200AE
:1052C400307A4F5D377A480004070300000000007D
:1052D400001C3E63410000000041633E1C000000CE
:1052E400082A3E1C1C3E2A0808083E3E0808000006
:1052F4000080E060000000000808080808080000BA
:1053040000006060000000006030180C060301001B
:105314003E7F71594D7F3E0040427F7F40400000F8
:10532400627359496F660000226349497F36000061
:10533400181C16537F7F5000276745457D390000B0
:105344003C7E4B4979300000030371790F0700005C
:10535400367F49497F360000064F49693F1E0000E9
:1053640000006666000000000080E66600000000A1
:10537400081C366341000000242424242424000053
:10538400004163361C080000020351590F06000057
:105394003E7F415D5D1F1E007C7E13137E7C0000FA
:1053A400417F7F49497F36001C3E634141632200AF
:1053B400417F7F41633E1C00417F7F495D41630023
:1053C400417F7F491D0103001C3E634151737200FC
:1053D4007F7F08087F7F000000417F7F410000003D
:1053E400307040417F3F0100417F7F081C7763009C
:1053F400417F7F41406070007F7F0E1C0E7F7F00E5
:105404007F7F060C187F7F001C3E6341633E1C00B7
:10541400417F7F49090F06001E3F21717F5E000016
:10542400417F7F09197F6600266F4D597332000052
:1054340003417F7F410300007F7F40407F7F000066
:105444001F3F60603F1F00007F7F3018307F7F0068
:1054540043673C183C674300074F78784F070000C8
:10546400476371594D677300007F7F41410000001D
:105474000103060C183060000041417F7F000000EA
:10548400080C0603060C08008080808080808080E1
:105494000000030704000000207454543C784000CA
:1054A400417F3F4848783000387C44446C280000F1
:1054B400307848493F7F4000387C54545C180000E1
:1054C400487E7F490302000098BCA4A4F87C040031
:1054D400417F7F08047C780000447D7D400000000B
:1054E40060E08080FD7D0000417F7F10386C4400C7
:1054F40000417F7F400000007C7C18381C7C7800D1
:105504007C7C04047C780000387C44447C380000B3
:1055140084FCF8A4243C1800183C24A4F8FC84005F
:10552400447C784C041C1800485C545474240000D7
:1055340000043E7F442400003C7C40403C7C40000E
:105544001C3C60603C1C00003C7C7038707C3C005F
:10555400446C3810386C44009CBCA0A0FC7C000057
:105564004C64745C4C64000008083E7741410000C0
:1055740000000077770000004141773E08080000F2
:10558400020301030203010070784C464C7870005A
:105594000E9F91B1FB4A00003A7A40407A7A40006B
:1055A400387C54555D19000002237555557D7B42A6
:1055B400217554547D794000217555547C78400000
:1055C400207457577C784000183CA4A4E4400000A1
:1055D400023B7D55555D1B02397D54545D19000015
:1055E400397D55545C18000001457C7C4101000064
:1055F4000203457D7D43020001457D7C400000009F
:10560400797D1612167D790070782B2B7870000046
:10561400447C7C5555450000207454547C7C54547F
:105624007C7E0B097F7F4900327B49497B32000035
:10563400327A48487A320000327A4A487830000098
:105644003A7B41417B7A40003A7A42407878400084
:105654009ABAA0A0FA7A000001193C66663C1901C6
:105664003D7D40407D3D0000183C24E7E7242400B4
:10567400687E7F49436620002B2FFCFC2F2B000003
:10568400FFFF09092FF6F8A040C088FE7F09030236
:10569400207454557D79400000447D7D4100000014
:1056A4003078484A7A320000387840427A7A4000AA
:1056B4007A7A0A0A7A7000007D7D19317D7D0000B6
:1056C40000262F292F2F280000262F292F260000FF
:1056D40030784D456020000038380808080800007C
:1056E40008080808383800004F6F3018CCEEBB911A
:1056F4004F6F30186C76FBF90000007B7B000000D4
:10570400081C3622081C362222361C0822361C08A5
:10571400AA005500AA005500AA55AA55AA55AA558B
:10572400DDFFAA77DDAAFF77000000FFFF0000007D
:10573400101010FFFF000000141414FFFF000000FD
:105744001010FFFF00FFFF001010F0F010F0F00049
:10575400141414FCFC0000001414F7F700FFFF00FD
:105764000000FFFF00FFFF001414F4F404FCFC002D
:1057740014141717101F1F0010101F1F101F1F00D5
:105784001414141F1F000000101010F0F00000008B
:105794000000001F1F1010101010101F1F101010F9
:1057A400101010F0F0101010000000FFFF10101087
:1057B4001010101010101010101010FFFF10101007
:1057C400000000FFFF1414140000FFFF00FFFF108F
:1057D40000001F1F101717140000FCFC04F4F4143D
:1057E40014141717101717141414F4F404F4F414FD
:1057F4000000FFFF00F7F714141414141414141405
:105804001414F7F700F7F7141414141717141414D6
:1058140010101F1F101F1F10141414F4F414141468
:105824001010F0F010F0F01000001F1F101F1F10D8
:105834000000001F1F141414000000FCFC141414B6
:105844000000F0F010F0F0101010FFFF10FFFF1038
:10585400141414FFFF1414141010101F1F00000060
:10586400000000F0F0101010FFFFFFFFFFFFFFFF2C
:10587400F0F0F0F0F0F0F0F0FFFFFFFF00000000A8
:1058840000000000FFFFFFFF0F0F0F0F0F0F0F0FA0
:10589400387C446C386C4400FCFE2A2A3E14000018
:1058A4007E7E020206060000027E7E027E7E0200EA
:1058B40063775D4963630000387C447C3C040400E6
:1058C40080FE7E20203E1E000406027E7C0602002E
:1058D40099BDE7E7BD9900001C3E6B496B3E1C0077
:1058E4004C7E7301737E4C0030784A4F7D39000042
:1058F400183C243C3C243C1898FC643C3E273D184E
:105904001C3E6B49490000007E7F01017F7E000040
:105914002A2A2A2A2A2A000044445F5F44440000B9
:1059240040515B4E4440000040444E5B51400000F7
:10593400000000FEFF01070660E080FF7F0000001A
:1059440008086B6B0808000024361236243612004F
:1059540000060F090F0600000000001818000000E0
:105964000000001010000000103070C0FFFF0101A3
:10597400001F1F011F1E000000191D171200000048
:1059840000003C3C3C3C000000000E1F11111F0EA7
:10599400FFFFFFFFFFFFFFFFFFFFFFFFFFFF7FFF93
:1059A400FFFFFFFFFFFFFFFFFFFFFFFFFFFFFFFF03
:1059B4007FFFFFFFFFFFFFFFFFFFFFFFFFFFFFFF73
:1059C400FFFFFFFFFFFFFFFFFFFFFFFFFFFFFFFFE3
:1059D400FFFFFFFFFFFFFFFFFFFFFFFFFFFFFFFFD3
:1059E400FFFFFFFFFFFFFFFFFFFFFFFFFFFFFFFFC3
:1059F400FFFFFFFFFFFFFFFFFFFF7F7F7F7F7F7FB3
:105A04007F7F7F7F7F7F7F7F7F7F7FFFFFFFFFFF22
:105A1400FFFFFFFFFFFF7F3F1F0F07070707000080
:105A240001078FDFFFFFFFFFFFFFFFFFFFFFFFFF08
:105A340000FFFFFFFFFF73BBBB9307FFFF03F7FBF1
